:020000040000FA
:0400000080312628FD
:100008007E1480318B1E09280A2812280B1D0D2802
:100018000E28122884311B24803124280B1F152810
:10002800162824282100131E1A281B2824282000FB
:10003800131E1F282028242884316924803124286D
:100048007E10090080312828003084008330850024
:10005800A03086000030870040308431BD248031D4
:10006800F001F101F201F301F401F50120308400FF
:100078000030850024308431C32480317E10200074
:100088008331402B20003F08A03E860087010108ED
:10009800CB002A084B060319522853285428C22992
:1000A800BE01BF1E582859285C2822008C155E28DE
:1000B80022008C112000BF1A622863287A28BF19F1
:1000C800662867287A283F196A286B287A283F1AF1
:1000D8006E286F287A2822008E100C10003020001D
:1000E800C400C5008331E6238031B129BF1A7D28B9
:1000F8007E289128BF198128822891283F198528B0
:10010800862891283F1E89288A28912822008E1047
:100118000C10843147248031B129BF1A94289528BE
:10012800A528BF1998289928A5283F1D9C289D28EF
:10013800A5283F1AA028A128A52822008E100C1453
:100148007228BF1AA828A928B928BF19AC28AD2831
:10015800B9283F1DB028B128B9283F1EB428B528B2
:10016800B92822008E100C108D28BF1ABC28BD2873
:10017800CD28BF1DC028C128CD283F19C428C528AF
:10018800CD283F1AC828C928CD2822008E140C1063
:100198007228BF1AD028D128E128BF1DD428D52815
:1001A800E1283F19D828D928E1283F1EDC28DD2876
:1001B800E12822008E140C107228BF1AE428E528C2
:1001C800F528BF1DE828E928F5283F1DEC28ED286B
:1001D800F5283F1AF028F128F52822008E140C146F
:1001E8007228BF1AF828F9280929BF1DFC28FD28FC
:1001F80009293F1D0029012909293F1E042905292C
:10020800092922008E140C147228BF1E0C290D29EE
:100218002529BF191029112925293F19142915291C
:1002280025293F1A18291929252922008E100C1072
:1002380032302000C4000030C5008331E62380310D
:10024800B129BF1E282929293929BF192C292D2967
:1002580039293F193029312939293F1E34293529AF
:10026800392922008E100C108D28BF1E3C293D29EB
:100278004D29BF19402941294D293F1D44294529A8
:100288004D293F1A482949294D2922008E100C1062
:100298001C29BF1E502951296129BF1954295529E4
:1002A80061293F1D5829592961293F1E5C295D296B
:1002B800612922008E100C101C29BF1E6429652993
:1002C8007529BF1D6829692975293F196C296D2968
:1002D80075293F1A70297129752922008E140C106E
:1002E8001C29BF1E782979298929BF1D7C297D29C8
:1002F80089293F198029812989293F1E842985292F
:10030800892922008E140C101C29BF1E8C298D29C6
:100318009D29BF1D902991299D293F1D9429952923
:100328009D293F1A982999299D2922008E140C1479
:100338001C29BF1EA029A129B129BF1DA429A529AF
:10034800B1293F1DA829A929B1293F1EAC29AD29EA
:10035800B12922008E140C141C292000CC014C0851
:10036800203E8600870181010130CA004A08CC0777
:100378000B304C02031CC129C229B32908000430E0
:1003880026001306031DC929CA29602A7708F10027
:100398007608F0000530930020003903031DD529A5
:1003A800D6298E2AB9012C087102031DDD292B08D4
:1003B8007002031CE029E129E8292B087002AD002E
:1003C8002C08713BAE00F4292C08F9002B08F80022
:1003D800F809F90970087807AD007108793DAE0091
:1003E8003008F9002F08F800F936F80CF936F80C3F
:1003F800F936F80C7808BB002E08F9002D08F8002B
:10040800F936F80CF936F80CF936F80C7808F200D9
:1004180072083B020318112A122A162A3B08720294
:10042800BA00192A72083B02BA003808031D1D2AAF
:100438001E2A2D2A22000E16103020003A02031818
:10044800262A272A8E2AB801B80AB70122000E12D6
:100458008E2A10303A020318322A332A432A2200FD
:100468000E120130F8002000370A3B2AF835890BB4
:100478003A2A7808FF3AF9007908F405512A220047
:100488000E160130F8002000370A4B2AF835890B80
:100498004A2A7808F9007908F4040130F800780845
:1004A800B70708303702031C5A2A5B2A5F2AB801AB
:1004B8000130C3008E2A8E2A05301306031D652AD3
:1004C800662A8E2A77082000AC007608AB00043034
:1004D80026009300710820002C02031D752A70085D
:1004E8002B02031C782A792A802A70082B02AF0075
:1004F80071082C3BB0008C2A7108F9007008F800CC
:10050800F809F9092B087807AF002C08793DB000E5
:10051800B901B90A080020004303031D942A952A4B
:10052800FF2AC301DC2AC8307406031D9C2A9D2AB1
:10053800A22AC101C10A7408A000FF2AC101FF2A2A
:100548008B307406031DA92AAA2AA22A7408A100BE
:100558000230C100FF2A7408A2000330C100FF2A3C
:100568007408A3000430C100FF2A7408A4000530F1
:10057800C100FF2A7408A5000630C100FF2A7408CC
:10058800A6000730C100FF2A7408A7000830C10080
:10059800FF2A7408A8000930C100FF2A7408A900BE
:1005A8000A30C100FF2A7408AA00C201C20AA22A9E
:1005B8004108003A0319972A013A0319A42A033A71
:1005C8000319AF2A013A0319B42A073A0319B92AB9
:1005D800013A0319BE2A033A0319C32A013A031937
:1005E800C82A0F3A0319CD2A013A0319D22A033A25
:1005F8000319D72AA22A08004C349F34ED343E341C
:100608009A34003400340034273400340034003481
:100618007334A034D23401348E345D342F34FC3436
:100628006734003400340034DA34003400340034E1
:10063800B13462341034C3342D34FE348C345F3416
:100648002C340034003400343834EB3499344A34D0
:100658001234C134B3346034EF343C344E349D34F6
:10066800D1340034003400346C34003400340034A5
:10067800D03403347134A2348431022483315A30A3
:100688002000C4000430C5008431C92483318B178D
:100698000B1782318F228331833177238331833162
:1006A800A823833120003C08031D5B2B5C2B672BA0
:1006B8003D03031D602B612B632BBD014D2B803146
:1006C800462083314D2BBC0122008C150C108E1452
:1006D80032302000C4000030C5008331E623833166
:1006E8004D2B8031262820002208F3002308C00063
:1006F800BF01731D802B812B832BBF16842BBF1248
:10070800F31D872B882B8A2B3F168B2B3F12731ECA
:100718008E2B8F2B912BBF15922BBF11F31E952B70
:10072800962B982B3F15992B3F11C01E9C2B9D2B68
:100738009F2BBF14A02BBF10401FA32BA42BA62BAD
:100748003F14A72B3F100800063020002206031D87
:10075800AE2BAF2BC82BD5302A06031DB42BB52BD7
:10076800C82B22008C152000BD01BD0A22008E1066
:100778000C1032302000C4000030C5008331E6235D
:1007880083312000BE01C92BBD0108002200900161
:100798008C018D0110308E00083021009000F63059
:1007A8008C00FF308D00F9308E003F3023008D0023
:1007B8003F308C00240090018D0121009517220004
:1007C8009D01080020004508C7004408C600C73638
:1007D800C60CC736C60C4608250091002000440800
:1007E8000339C6000430C635890BF72B25001308DA
:1007F800CF39200046042500930008008331CA231E
:10080800843184319F2484318431CF2484318431EC
:10081800852484318431AB2484318431B5248431F6
:1008280084317824843184313324843108000B11D5
:100838007508200095000130B1070030B23D003046
:1008480032020A3003193102031C2B2C2C2C322CB7
:100858008431922484312000B101B20108002100C2
:100868001508C03914389500063020009500063068
:10087800F5000B118B16D330C4000430C500843149
:10088800C92484310800F4302000C8000130C900B0
:10089800BF1C4F2C502C522CC801C9014908C50057
:1008A8004808C4008331E623843108000130F6008B
:1008B80076082000BE07C8303E02031C642C652C55
:1008C800682CBC01BC0ABE010800200013122600D7
:1008D8001108FA001208FB007B08F7007A08F600F6
:1008E8008131C3218431080010302000990097011C
:1008F800960111101708B6001608B50001309800C7
:1009080008000C30250093009501803094000130D8
:10091800960092019101FC309E05080020003308E2
:1009280034040319982C992C9E2C34088A00330817
:100938000A008431080070302100990098012200D3
:10094800960121001A1FA92CAA2CA52C08000530F5
:100958002600930092019101200013122100131622
:1009680008007C3020009B009A01911007309C0001
:100978000800FE0012001E00FE0BBE2C00346400AE
:1009880080010131890BC42C003420004508B400D3
:100998004408B3000800163021009700080008003A
:020000040001F9
:04000E00C43FFF1FCD
:00000001FF
