:020000040000FA
:0400000080312628FD
:100008007E1480318B1E09280A2812280B1D0D2802
:100018000E28122884311624803124280B1F152815
:10002800162824282100131E1A281B2824282000FB
:10003800131E1F2820282428843164248031242872
:100048007E10090080312828003084008330850024
:10005800A03086000030870040308431B8248031D9
:10006800F001F101F201F301F401F50120308400FF
:100078000030850024308431BE2480317E10200079
:100088008331402B20003F08A03E860087010108ED
:10009800CB002A084B060319522853285428C22992
:1000A800BE01BF1E582859285C2822008C155E28DE
:1000B80022008C112000BF1A622863287A28BF19F1
:1000C800662867287A283F196A286B287A283F1AF1
:1000D8006E286F287A2822008E100C10003020001D
:1000E800C400C5008331E1238031B129BF1A7D28BE
:1000F8007E289128BF198128822891283F198528B0
:10010800862891283F1E89288A28912822008E1047
:100118000C10843142248031B129BF1A94289528C3
:10012800A528BF1998289928A5283F1D9C289D28EF
:10013800A5283F1AA028A128A52822008E100C1453
:100148007228BF1AA828A928B928BF19AC28AD2831
:10015800B9283F1DB028B128B9283F1EB428B528B2
:10016800B92822008E100C108D28BF1ABC28BD2873
:10017800CD28BF1DC028C128CD283F19C428C528AF
:10018800CD283F1AC828C928CD2822008E140C1063
:100198007228BF1AD028D128E128BF1DD428D52815
:1001A800E1283F19D828D928E1283F1EDC28DD2876
:1001B800E12822008E140C107228BF1AE428E528C2
:1001C800F528BF1DE828E928F5283F1DEC28ED286B
:1001D800F5283F1AF028F128F52822008E140C146F
:1001E8007228BF1AF828F9280929BF1DFC28FD28FC
:1001F80009293F1D0029012909293F1E042905292C
:10020800092922008E140C147228BF1E0C290D29EE
:100218002529BF191029112925293F19142915291C
:1002280025293F1A18291929252922008E100C1072
:1002380031302000C4000030C5008331E123803113
:10024800B129BF1E282929293929BF192C292D2967
:1002580039293F193029312939293F1E34293529AF
:10026800392922008E100C108D28BF1E3C293D29EB
:100278004D29BF19402941294D293F1D44294529A8
:100288004D293F1A482949294D2922008E100C1062
:100298001C29BF1E502951296129BF1954295529E4
:1002A80061293F1D5829592961293F1E5C295D296B
:1002B800612922008E100C108D28BF1E6429652923
:1002C8007529BF1D6829692975293F196C296D2968
:1002D80075293F1A70297129752922008E140C106E
:1002E8001C29BF1E782979298929BF1D7C297D29C8
:1002F80089293F198029812989293F1E842985292F
:10030800892922008E140C101C29BF1E8C298D29C6
:100318009D29BF1D902991299D293F1D9429952923
:100328009D293F1A982999299D2922008E140C1479
:100338001C29BF1EA029A129B129BF1DA429A529AF
:10034800B1293F1DA829A929B1293F1EAC29AD29EA
:10035800B12922008E140C141C292000CC014C0851
:10036800203E8600870181010130CA004A08CC0777
:100378000B304C02031CC129C229B32908000430E0
:1003880026001306031DC929CA29602A7708F10027
:100398007608F0000530930020003903031DD529A5
:1003A800D6298E2AB9012C087102031DDD292B08D4
:1003B8007002031CE029E129E8292B087002AD002E
:1003C8002C08713BAE00F4292C08F9002B08F80022
:1003D800F809F90970087807AD007108793DAE0091
:1003E8003008F9002F08F800F936F80CF936F80C3F
:1003F800F936F80C7808BB002E08F9002D08F8002B
:10040800F936F80CF936F80CF936F80C7808F200D9
:1004180072083B020318112A122A162A3B08720294
:10042800BA00192A72083B02BA003808031D1D2AAF
:100438001E2A2D2A22000E16103020003A02031818
:10044800262A272A8E2AB801B80AB70122000E12D6
:100458008E2A10303A020318322A332A432A2200FD
:100468000E120130F8002000370A3B2AF835890BB4
:100478003A2A7808FF3AF9007908F405512A220047
:100488000E160130F8002000370A4B2AF835890B80
:100498004A2A7808F9007908F4040130F800780845
:1004A800B70708303702031C5A2A5B2A5F2AB801AB
:1004B8000130C3008E2A8E2A05301306031D652AD3
:1004C800662A8E2A77082000AC007608AB00043034
:1004D80026009300710820002C02031D752A70085D
:1004E8002B02031C782A792A802A70082B02AF0075
:1004F80071082C3BB0008C2A7108F9007008F800CC
:10050800F809F9092B087807AF002C08793DB000E5
:10051800B901B90A080020004303031D942A952A4B
:10052800FF2AC301DC2AC8307406031D9C2A9D2AB1
:10053800A22AC101C10A7408A000FF2AC101FF2A2A
:100548008B307406031DA92AAA2AA22A7408A100BE
:100558000230C100FF2A7408A2000330C100FF2A3C
:100568007408A3000430C100FF2A7408A4000530F1
:10057800C100FF2A7408A5000630C100FF2A7408CC
:10058800A6000730C100FF2A7408A7000830C10080
:10059800FF2A7408A8000930C100FF2A7408A900BE
:1005A8000A30C100FF2A7408AA00C201C20AA22A9E
:1005B8004108003A0319972A013A0319A42A033A71
:1005C8000319AF2A013A0319B42A073A0319B92AB9
:1005D800013A0319BE2A033A0319C32A013A031937
:1005E800C82A0F3A0319CD2A013A0319D22A033A25
:1005F8000319D72AA22A08004C349F34ED346234F8
:100608009A34003400340034273400340034003481
:100618007334A034713401348E345D342F34FC3497
:100628006734003400340034DA34003400340034E1
:10063800B134A034713401342D34FE348C345F3439
:100648002C340034003400343834EB3499344A34D0
:100658001234C134B3346034EF343C344E349D34F6
:10066800D1340034003400346C34003400340034A5
:10067800D03403347134A2348331FD2383315530AF
:100688002000C4000430C5008431C42483318B1792
:100698000B1782318F228331833175238331833164
:1006A800A623833120003C08031D5B2B5C2B672BA2
:1006B8003D03031D602B612B632BBD014D2B803146
:1006C800462083314D2BBC01F330C4000130C500F6
:1006D8008331E123833122000C108C154D2B80319E
:1006E800262820002208F3002308C000BF01731D3C
:1006F8007E2B7F2B812BBF16822BBF12F31D852BE0
:10070800862B882B3F16892B3F12731E8C2B8D2B23
:100718008F2BBF15902BBF11F31E932B942B962B69
:100728003F15972B3F11C01E9A2B9B2B9D2BBF1457
:100738009E2BBF10401FA12BA22BA42B3F14A52B2F
:100748003F100800063020002206031DAC2BAD2BFD
:10075800C32BD5302A06031DB22BB32BC32B220083
:100768008C152000BD01BD0A0030C400C5008331CE
:10077800E123833122000C102000BE01C42BBD01EF
:100788000800220090018C018D0110308E00083085
:1007980021009000F6308C00FF308D00F9308E007B
:1007A8003F3023008D003F308C00240090018D01E4
:1007B8002100951722009D01080020004508C70068
:1007C8004408C600C736C60CC736C60C46082500FE
:1007D8009100200044080339C6000430C635890B4F
:1007E800F22B25001308CF3920004604250093007A
:1007F80008008331C523833184319A2483318431BD
:10080800CA2483318431802483318431A6248331FE
:100818008431B024833184317324833184312E248C
:10082800833108000B117508200095000130B107CD
:100838000030B23D003032020A3003193102031C85
:10084800262C272C2D2C84318D2484312000B101B5
:10085800B201080021001508C03914389500063087
:10086800200095000630F5000B118B16CE30C40021
:100878000430C5008431C42484310800F3302000DA
:10088800C8000130C900BF1C4A2C4B2C4D2CC80194
:10089800C9014908C5004808C4008331E1238431EF
:1008A80008000130F60076082000BE07C8303E0276
:1008B800031C5F2C602C632CBC01BC0ABE01080021
:1008C8002000131226001108FA001208FB007B080A
:1008D800F7007A08F6008131C3218431080010300E
:1008E800200099009701960111101708B600160804
:1008F800B5000130980008000C30250093009501E0
:10090800803094000130960092019101FC309E05E0
:1009180008002000330834040319932C942C992CD4
:1009280034088A0033080A00843108007030210036
:10093800990098012200960121001A1FA42CA52CC9
:10094800A02C080005302600930092019101200098
:1009580013122100131608007C3020009B009A0116
:10096800911007309C000800FE0012001E00FE0BCC
:10097800B92C0034640080010131890BBF2C00348C
:1009880020004508B4004408B300080016302100D0
:06099800970008000800B2
:020000040001F9
:04000E00C43FFF1FCD
:00000001FF
